:100000000C9439000C94CC040C94FF040C9432052D
:040014000C949904AB
:090068000100000000000000008E
:14007200CFEFD4E0CDBFDEBFCE51D0400AEA08830024E9E044
:14008600F1E011E0E435F10711F00192FBCF0083E8E6F0E014
:14009A00A0E0B1E010E000E00BBFE137F10721F0C895319662
:1400AE000D92F9CF0E94E002FFCF0E94A108A8014030E0E061
:1400C2005E071CF461E070E002C066277727A62E9A018A013D
:1400D6000E94630820E830E00E941508A801662321F040951A
:1400EA0050954F5F5F4F8A010C94A8088DE790E080179107D3
:1400FE001CF40DE710E007C00030E0E01E071CF400271127AF
:1401120000C00895F8948FE784B980EC87B981EF8AB985E079
:140126008093680080E880936B0082E080936D0085E080930A
:14013A00690083E08DBB82E08093810084E08093B100789473
:14014E0004E10C94050820905101822D8A3B1CF086E4821588
:1401620034F4809101018F5F8093010103C02224209201018E
:140176008AEF209001018215B8F420900001222061F086E459
:14018A0020905101821574F488EC80930201222420920001DD
:14019E0007C0809151018A3B1CF481E08093000108950E949A
:1401B2009208C22E580128E030E085010E9415082C2D332746
:1401C6000E946308580120E130E00E9415080C947308AA9298
:1401DA00BA920E94990320900201222009F45FC02090310194
:1401EE00309032014090370150903801420C531C5092380111
:140202004092370122E030E082010E9415081093380100931B
:14021600370120902F01309030014090350150903601420C60
:14022A00531C509236014092350122E030E082010E941508DC
:14023E00109336010093350120902D0130902E014090330138
:1402520050903401420C531C509234014092330122E030E097
:1402660082010E9415081093340100933301809102018150BE
:14027A0080930201877021F480E425B0282625B8222433244D
:14028E003092250120922401309227012092260130922901EE
:1402A20020922801B3C020900001222011F02E98ADC0209023
:1402B600370130903801409031015090320142185308509257
:1402CA00320140923101209035013090360140902F0150902C
:1402DE003001421853085092300140922F012090330130906D
:1402F200340140902D0150902E014218530850922E0140921E
:140306002D0120900B0122FE0CC08091310190913201809561
:14031A0090958F5F9F4F909332018093310120900B0121FE58
:14032E000CC080912F0190913001809590958F5F9F4F909323
:14034200300180932F0120900B0120FE0CC080912D0190912D
:140356002E01809590958F5F9F4F90932E0180932D0120910A
:14036A00030100913101109132010E943403109332010093A2
:14037E0031012091040100912F01109130010E943403109374
:14039200300100932F012091050100912D0110912E010E947B
:1403A60034035801B0922E01A0922D0120913101309132010B
:1403BA0000912801109129010E9463035801B0922901A092AB
:1403CE00280120912F013091300100912601109127010E94FC
:1403E20063035801B0922701A092260120912D0130912E01B6
:1403F60000912401109125010E9463035801B0922501A0927B
:14040A0024012E9AB990A99008950E948C0820900A0121FEC2
:14041E001DC000915001112748DEA80100915301112707FDE3
:14043200109541DE22E030E00E94150878010091520111278C
:1404460007FD109536DE580122E030E00E941508680117C07B
:14045A0040915001552724E030E000915301112707FD109516
:14046E000E941508780124E030E000915201112707FD109569
:140482000E941508680120912C0100913101109132018DDE5E
:14049600B80120912B01009128011091290185DE1B01200E8A
:1404AA00311EE20CF31C20912C0100912F011091300179DE2A
:1404BE00B80120912B01009126011091270171DE1B01200E7A
:1404D200311EC20CD31C20912A0100912D0110912E0165DE5C
:1404E600580124E030E000915101112707FD10950E94150812
:1404FA0018012A0C3B1C510120900901222049F58A010C190C
:14050E001D090A0D1B1D0E943B04602F60933C018A010E1912
:140522001F090A191B090E943B04602F60933B018A010E0D11
:140536001F1D0A191B090E943B04602F60933A018A010C0DEC
:14054A001D1D0A0D1B1D0E943B04602F6093390130C08A01FC
:14055E000E0D1F1D0C191D090A0D1B1D0E943B04602F609335
:140572003C018A010E191F090C191D090A191B090E943B04EB
:14058600602F60933B018A010E0D1F1D0C0D1D1D0A191B0927
:14059A000E943B04602F60933A018A010E191F090C0D1D1D82
:1405AE000A0D1B1D0E943B04A02EA09239010C948108AADD1F
:1405C2000E94D2050E9424072E9830C022242092B20001DEA0
:1405D60001C0A8958091B2008D37D8F30E9449040E947305B8
:1405EA0020904F0130905001321420F40E940E04ACDD01C094
:1405FE000ADF20900001222041F420900201222021F48091BD
:140612005001853048F422242092390120923A0120923B0185
:1406260020923C010E945104CFCF08950E94AF086801AA240F
:14063A00BB2444270BC0E42FFF27EE0FFF1FEC0DFD1D208090
:14064E003180A20CB31C4395443098F324E030E085010E9457
:1406620015080C94B6080E949208C22E5801CC2011F485010D
:1406760025C0222433242A143B047CF42C2D332727FD309565
:14068A0020583F4F85010E94630820E830E00E941508580193
:14069E0010C02C2C332427FC309420E830E0221933098501CD
:1406B2000E94630820E830E00E941508580185010C94730856
:1406C6000E9497085901A80124E030E085010E94150858012A
:1406DA00400F511F80ED97E08417950714F440ED57E0403353
:1406EE00E8EF5E0714F440E358EF22E030E08A010E941508EE
:14070200A8010C949C0800937C0086EC80937A0020907A00BE
:1407160026FCFCCF86EC80937A0020907A0026FCFCCF00913B
:14072A0078001091790008950E9497088FE380937E00222402
:14073E0020927B0002E0E1DF109332010093310101E0DBDFA2
:140752001093300100932F010027D5DF5801B0922E01A09225
:140766002D0120900A0120FE54C0409106014F5F4370409358
:14077A0006018CE191E0E42FFF27EE0FFF1FE80FF91F209073
:14078E0031013090320131822082409107014F5F43704093D0
:1407A200070184E191E0E42FFF27EE0FFF1FE80FF91F209052
:1407B6002F013090300131822082409108014F5F43704093AB
:1407CA0008018CE091E0E42FFF27EE0FFF1FE80FF91F209022
:1407DE002D0130902E01318220820CE111E022DF5801B0921B
:1407F2003201A092310104E111E01ADF5801B0923001A0928F
:140806002F010CE011E012DF5801B0922E01A0922D010C9416
:14081A009C08AA92BA928FE380937E00222420927B0003E045
:14082E006CDF180136942794369427943694279420922C01E4
:1408420004E061DF1801369427943694279436942794209224
:140856002B0105E056DF580115013694279436942794369405
:14086A00279420922A01B990A99008958DE790E080179107B0
:14087E0014F40DE706C00030E0E01E0714F4002700C0089503
:1408920022242092B2002A9A299A289A5F9A089501C0A895CB
:1408A6008091B2008D37D8F322242092B200002736C0209075
:1408BA003C013324402E55242414350414F42A9801C02A9AEF
:1408CE0020903B013324402E55242414350414F4299801C0F1
:1408E200299A20903A013324402E55242414350414F42898DD
:1408F60001C0289A209039013324402E55242414350414F4CA
:14090A005F9803C05F9A01C0A8958091B2008130D8F32224A3
:14091E002092B20003950D3740F22A98299828985F9808957C
:140932002A923A924A925A928A932FB62A9280913D01816073
:1409460080933D01499B09C0209084003090850030924E0115
:14095A0020924D0114C081E080933E0120904D0130904E01F5
:14096E004090840050908500421853085092460140924501C6
:14098200222420923E0129902FBE8991599049903990299026
:1409960018952A923A924A925A928A932FB62A9280913D0143
:1409AA00826080933D014A9B09C0209084003090850030921D
:1409BE004C0120924B0114C081E080933E0120904B01309097
:1409D2004C014090840050908500421853085092440140925D
:1409E6004301222420923E0129902FBE899159904990399037
:1409FA00299018952A923A924A925A928A932FB62A92809164
:140A0E003D01846080933D014B9B09C0209084003090850039
:140A220030924A012092490114C081E080933E012090490136
:140A360030904A01409084005090850042185308509242010E
:140A4A0040924101222420923E0129902FBE899159904990CB
:140A5E003990299018952A923A924A925A928A932FB62A9247
:140A720080913D01886080933D011F9B09C020908400309071
:140A86008500309248012092470114C081E080933E0120909B
:140A9A004701309048014090840050908500421853085092A7
:140AAE00400140923F01222420923E0129902FBE8991599001
:140AC20049903990299018958DE790E08017910714F40DE709
:140AD60006C00338EFEF1E0714F403E800C008950E94970877
:140AEA0001C0A89520903E012220D9F74091450150914601BA
:140AFE004C5D554024E030E08A010E941508DEDF00935301A4
:140B120001C0A89520903E012220D9F7409143015091440195
:140B26004C5D554024E030E08A010E941508CADF0093520190
:140B3A0001C0A89520903E012220D9F7409141015091420171
:140B4E00485E5340222433242416350654F428E030E08A015D
:140B62000E941508B1DFA02EA092500105C0222420925001D1
:140B760001C0A89520903E012220D9F740913F015091400139
:140B8A004C5D554024E030E08A010E94150898DFA02EA09244
:140B9E0051010C949C084A93222420923D01442710C09ADFE6
:140BB20080913D018F3021F4222420923D01439580E425B0C5
:140BC600282625B802E30E94F907443170F3499108950E9478
:140BDA008E08E22EA02E48855985CE2CCA2471F0AE2C2E2D6A
:140BEE008A010E94B4072E2C2C2011F02E9A01C02E980AE02B
:140C02000E9405080A2D0C9478084A932E9A44270DC00E9459
:140C1600730504E10E94F9078EE620905001821510F44395E3
:140C2A0001C04427423388F348E728C00E9449040E9473057A
:140C3E000091500111270E943B040093390100933A01009379
:140C52003B0100933C01209050013324442E552424143504CE
:140C660034F4422D222D04E210E00E94B4070E94510480E406
:140C7A0025B0282625B800E10E94F907D7CF499108954A93E9
:140C8E0022972E9A0AE00E94050801E210E00E94CD07402F80
:140CA20000930A0129C00E94730504E10E94F90780E425B0DD
:140CB600282625B886E42090510182150CF4416080915101F8
:140CCA008A3B0CF44E7F86E42090520182150CF442608091CD
:140CDE0052018A3B0CF44D7F81E290E099838883242F009140
:140CF2000A0171DF00930A01D6CF2296499108954A9322978B
:140D06002E9A0AE00E94050800E210E00E94CD07402F00932E
:140D1A000B013BC00E9473050E940E0415E000912A010E949D
:140D2E004D08065F0E94F90780E425B0282625B886E42090D7
:140D4200530182150CF44460809153018A3B0CF44B7F86E4B0
:140D56002090520182150CF44260809152018A3B0CF44D7F58
:140D6A0086E42090510182150CF44160809151018A3B0CF4A9
:140D7E004E7F80E290E099838883242F00910B0124DF009315
:140D92000B01C4CF2296499108954A9322972E9A0AE00E9495
:140DA600050802E210E00E94CD07402F009309011EC00E9456
:140DBA00730504E10E94F90780E425B0282625B886E42090A8
:140DCE00510182150CF44427809151018A3B0CF44FEF82E2F3
:140DE20090E099838883242F00910901F4DE00930901E1CF59
:140DF6002296499108954A935A934427552706C02FEF8A019A
:140E0A000E94B4074F5F5F4F4030E2E05E07B0F32E9AFFCF4B
:140E1E005991499108954A93402F08C02E9A02E30E94F907FC
:140E32002E9808EC0E94F907242E33244150222099F749916A
:140E460008950E94A108002711270E94D50798012F5F3F4F1E
:140E5A00002711270E94BD0700E210E00E94CD0700930B01D8
:140E6E0001E210E00E94CD07A02EA0920A0102E210E00E94A6
:140E8200CD07A02EA092090104E210E00E94CD07402F842F10
:140E9600865F80934F0102E010E00E94CD07402F0035A9F477
:140EAA0003E010E00E94CD07A02EA092030104E010E00E9471
:140EBE00CD07A02EA092040105E010E00E94CD07A02EA092FC
:140ED200050180915001843608F443C02E980AE00E9405088C
:140EE60044E664E63BC00E94730504E10E94F907A62EBB2435
:140EFA006F5F84E68A1558F46627842F8F5FA82E482F85E0E1
:140F0E00841708F441E0042F86DF809150018E3108F5A42E8F
:140F2200BB24C5018130E0E09E0789F08230E0E09E0779F007
:140F36008330E0E09E0769F08430E0E09E0759F08530E0E05F
:140F4A009E0749F009C05DDE07C09BDE05C0D4DE03C01FDF39
:140F5E0001C04DDFC4CF0C94A808F999FECF12BD01BD20BDE6
:140F7200FA9AF99AA89508950E9497085901A8019501232F3E
:140F860033278A01EEDF2A2D8A010F5F1F4FE9DF0C949C08DB
:140F9A00F999FECF12BD01BDF89AA89500B508950E949708F5
:140FAE00A8018A01F3DFA02EBB24BA2CAA248A010F5F1F4F61
:140FC200EBDF202E3324A20CB31C85010C949C084A9306C0C2
:140FD600442702C0000043954F30E0F3202E33240150222078
:140FEA00A9F7A895499108954A93402F02C004E6EBDF242E8B
:140FFE00332441502220C9F7499108954A93402F02C004E686
:14101200EFDF242E332441502220C9F7499108956894DA92E1
:14102600D12E04C0E894DA92D12ED32617FF04C010950095FF
:14103A000F5F1F4F37FF04C0309520952F5F3F4F0E9432085A
:14104E00D7FE04C0109500950F5F1F4FD9900895689401C01C
:14106200E894EA92FA928A93EE24FF2480E1000F111FEE1CFA
:14107600FF1CE216F30618F0E21AF30A03958A95A1F716F400
:14108A000E2D1F2D8991F990E9900895689401C0E8942A931C
:14109E00FA92EA92FF24EE2420E1000FFF1CEE1CE11610F0D5
:1410B200E11A03952A95B9F70EF40E2DE990F9902991089592
:1410C6000A921A928A939A93029FC001129F900D039F900D95
:1410DA008C0199918991199009900895A990B990C990D9900E
:1410EE000895A990B990C990D990E990F990499159910895AA
:14110200A990B990C990D990E990F9904991599169917991CB
:1411160008957A936A935A934A93FA92EA92DA92CA92BA9238
:14112A00AA9208955A934A93BA92AA920895A990B99049918D
:14113E00599108957A936A935A934A93BA92AA920895A990E4
:14115200B990499159916991799108955A934A93DA92CA9249
:14116600BA92AA920895A990B990C990D990499159910895AB
:00000001FF
